S00F0000796F75747562652E7372656308
S113000065C000006BC0000069C0000067C000004C
S113001065C0000063C0000061C000005FC0000054
S11300205DC000005BC0000059C0000057C0000064
S113003055C0000053C0000051C000004FC0000074
S11300404DC000004BC0000049C0000047C0000084
S113005045C0000043C0000041C000003FC0000094
S11300603DC000003BC0000039C0000037C00000A4
S113007035C0000033C0000031C000002FC00000B4
S11300802DC000002BC0000029C0000077007900BB
S11300907B007D007F00810083008500870089004C
S11300A08B008D008F00910093009500A000A500A7
S11300B0AA00AF00B400B900BE00C300C700CC0062
S11300C0D100D600DB00E000E500EA0011241FBEE9
S11300D0CFEFD0E1DEBFCDBFDFD6FBC691CF019716
S11300E08031910518F58A5B9F4FFC01E9C6D89AC7
S11300F00895D99A0895DA9A0895DB9A0895DC9AB6
S11301000895DD9A0895DE9A0895DF9A0895909AE5
S11301100895919A0895929A0895939A0895949AB5
S11301200895959A0895969A0895979A089501972F
S11301308031910508F051C08A5A9F4FFC01C0C616
S11301409BB381E089278BBB08959BB382E0892709
S11301508BBB08959BB384E089278BBB08959BB325
S113016088E089278BBB08959BB380E189278BBBEB
S113017008959BB380E289278BBB08959BB380E4E9
S113018089278BBB08958BB380588BBB089592B39A
S113019081E0892782BB089592B382E0892782BBDC
S11301A0089592B384E0892782BB089592B388E0CE
S11301B0892782BB089592B380E1892782BB089581
S11301C092B380E2892782BB089592B380E48927A1
S11301D082BB089582B3805882BB08951BBA12BAB9
S11301E008958FEF8BBB82BB089581E090E077DFA9
S11301F02FEF89E698E1215080409040E1F700C05C
S1130200000081E090E06BDF85E090E068DF2FEF95
S113021089E698E1215080409040E1F700C0000059
S113022081E090E084DF85E090E059DF89E090E0B0
S113023056DF2FEF89E698E1215080409040E1F7A6
S113024000C0000085E090E072DF89E090E047DFC5
S11302508DE090E044DF2FEF89E698E12150804063
S11302609040E1F700C000002FEF89E698E12150AB
S113027080409040E1F700C00000089582E090E0E3
S11302802EDF83E090E02BDF2FEF89E698E1215009
S113029080409040E1F700C0000083E090E047DF39
S11302A086E090E01CDF87E090E019DF2FEF89E61D
S11302B098E1215080409040E1F700C0000082E0C6
S11302C090E035DF87E090E032DF8AE090E007DFFE
S11302D08BE090E004DF2FEF89E698E12150804025
S11302E09040E1F700C0000086E090E020DF8BE062
S11302F090E01DDF8EE090E0F2DE8FE090E0EFDE34
S11303002FEF89E698E1215080409040E1F700C04A
S113031000002FEF89E698E1215080409040E1F7FA
S113032000C00000089581E090E0D9DE82E090E012
S1130330D6DE2FEF89E698E1215080409040E1F726
S113034000C0000082E090E0F2DE85E090E0C7DECD
S113035086E090E0C4DE2FEF85EA9EE021508040E5
S11303609040E1F700C0000081E090E0E0DE85E02D
S113037090E0DDDE82E090E0B2DE87E090E0AFDE88
S11303802FEF85EA9EE0215080409040E1F700C0C5
S1130390000087E090E0CBDE83E090E0A0DE2FEF6A
S11303A085EA9EE0215080409040E1F700C00000C3
S11303B086E090E0BCDE87E090E091DE2FEF89E6F6
S11303C098E1215080409040E1F700C0000082E0B5
S11303D090E0ADDE83E090E0AADE86E090E07FDE90
S11303E08BE090E07CDE2FEF89E698E1215080409D
S11303F09040E1F700C000002FEF89E698E121501A
S113040080409040E1F700C00000089581E090E052
S113041066DE82E090E063DE2FEF89E698E121500A
S113042080409040E1F700C0000081E090E07FDE72
S113043083E090E054DE2FEF85EA9EE02150804077
S11304409040E1F700C0000082E090E070DE84E0BC
S113045090E045DE2FEF85EA9EE0215080409040F9
S1130460E1F700C0000083E090E061DE88E090E006
S113047036DE2FEF89E698E1215080409040E1F785
S113048000C0000084E090E052DE8CE090E027DEC3
S11304902FEF89E698E1215080409040E1F700C0B9
S11304A0000088E090E043DE80E190E018DE2FEF6A
S11304B089E698E1215080409040E1F700C00000B7
S11304C02FEF89E698E1215080409040E1F700C089
S11304D0000008958AE090E02FEF12BA3FEF41EE5A
S11304E054E0315040405040E1F700C0000022BBCE
S11304F03FEF41EE54E0315040405040E1F700C03E
S11305000000019751F712BA86E090E010DE87E010
S113051090E00DDE8EE090E0E2DD8FE090E0DFDD44
S11305208FEF99E628E1815090402040E1F700C028
S113053000003FEF49E658E1315040405040E1F7B8
S113054000C00000089582E090E0C9DD2FEF89E645
S113055098E1215080409040E1F700C0000081E024
S113056090E0BDDD86E090E0BADD2FEF89E698E10A
S1130570215080409040E1F700C0000081E090E00D
S1130580D6DD82E090E0D3DD85E090E0A8DD8AE06E
S113059090E0A5DD2FEF85EA9EE021508040904059
S11305A0E1F700C0000085E090E0C1DD89E090E063
S11305B096DD2FEF85EA9EE0215080409040E1F7E0
S11305C000C0000086E090E0B2DD85E090E087DDC9
S11305D02FEF85EA9EE0215080409040E1F700C073
S11305E000008AE090E0A3DD86E090E078DD2FEF64
S11305F085EA9EE0215080409040E1F700C0000071
S113060085E090E094DD86E090E091DD8AE090E082
S113061066DD8DE090E063DD2FEF89E698E12150FF
S113062080409040E1F700C000002FEF89E698E198
S1130630215080409040E1F700C00000089581E01F
S113064090E04DDD82E090E04ADD2FEF89E698E10D
S1130650215080409040E1F700C0000085E090E028
S11306603EDD86E090E03BDD2FEF89E698E1215006
S113067080409040E1F700C0000081E090E057DD49
S113068085E090E054DD83E090E029DD87E090E0B0
S113069026DD2FEF85EA9EE0215080409040E1F76F
S11306A000C0000082E090E042DD86E090E03FDDA3
S11306B084E090E014DD88E090E011DD2FEF85EA1E
S11306C09EE0215080409040E1F700C0000083E0AC
S11306D090E02DDD84E090E02ADD8BE090E0FFDC0B
S11306E08CE090E0FCDC2FEF89E698E1215080401B
S11306F09040E1F700C000002FEF89E698E1215017
S113070080409040E1F700C000000895CF93DF934C
S1130710CAE0D0E089E090E00ADD8AE090E007DDFD
S11307208BE090E004DD8CE090E001DD2FEF81EEC2
S113073094E0215080409040E1F700C0000089E03F
S113074090E0CDDC8AE090E0CADC8BE090E0C7DC8E
S11307508CE090E0C4DC2FEF81EE94E021508040E7
S11307609040E1F700C000002197A1F687E090E0F7
S1130770DEDC88E090E0DBDC89E090E0D8DC8AE035
S113078090E0D5DC8BE090E0AADC8CE090E0A7DC84
S11307902FEF89E698E1215080409040E1F700C0B6
S11307A000002FEF89E698E1215080409040E1F766
S11307B000C00000DF91CF91089582E090E08FDCCB
S11307C02FEF89E698E1215080409040E1F700C086
S11307D0000081E090E083DC86E090E080DC2FEF95
S11307E089E698E1215080409040E1F700C0000084
S11307F081E090E09CDC82E090E099DC85E090E090
S11308006EDC8AE090E06BDC2FEF89E698E1215002
S113081080409040E1F700C0000085E090E087DC74
S113082089E090E05CDC2FEF89E698E1215080407C
S11308309040E1F700C000002FEF89E698E12150D5
S113084080409040E1F700C000000895CF93DF930B
S1130850CAE0D0E089E090E06ADC8AE090E067DCFE
S11308608BE090E064DC8CE090E061DC2FEF81EEC3
S113087094E0215080409040E1F700C0000089E0FE
S113088090E02DDC8AE090E02ADC8BE090E027DC2D
S11308908CE090E024DC2FEF81EE94E02150804046
S11308A09040E1F700C000002197A1F686E090E0B7
S11308B03EDC89E090E03BDC8BE090E038DC8CE0CF
S11308C090E035DC2FEF89E698E12150804090409C
S11308D0E1F700C000002FEF89E698E12150804045
S11308E09040E1F700C00000DF91CF91089581E0CE
S11308F090E0F5DB82E090E0F2DB2FEF89E698E10F
S1130900215080409040E1F700C0000082E090E078
S11309100EDC85E090E0E3DB86E090E0E0DB2FEFA7
S113092085EA9EE0215080409040E1F700C000003D
S113093081E090E0FCDB85E090E0F9DB82E090E090
S1130940CEDB87E090E0CBDB2FEF85EA9EE0215001
S113095080409040E1F700C0000087E090E0E7DBD2
S113096083E090E0BCDB2FEF85EA9EE021508040DD
S11309709040E1F700C0000086E090E0D8DB87E01B
S113098090E0ADDB2FEF89E698E121508040904064
S1130990E1F700C0000082E090E0C9DB83E090E072
S11309A0C6DB86E090E09BDB8BE090E098DB2FEFEA
S11309B089E698E1215080409040E1F700C00000B2
S11309C02FEF89E698E1215080409040E1F700C084
S11309D00000089581E090E082DB82E090E07FDB1C
S11309E02FEF89E698E1215080409040E1F700C064
S11309F0000085E090E073DB86E090E070DB2FEF91
S1130A0089E698E1215080409040E1F700C0000061
S1130A102FEF89E698E1215080409040E1F700C033
S1130A2000002FEF89E698E1215080409040E1F7E3
S1130A3000C000000895CF93DF9381E090E04FDB86
S1130A402FEF81EE94E0215080409040E1F700C008
S1130A50000082E090E043DB2FEF81EE94E0215030
S1130A6080409040E1F700C0000083E090E037DB75
S1130A702FEF81EE94E0215080409040E1F700C0D8
S1130A80000084E090E02BDB2FEF81EE94E0215016
S1130A9080409040E1F700C0000088E090E01FDB58
S1130AA02FEF81EE94E0215080409040E1F700C0A8
S1130AB0000087E090E013DB2FEF81EE94E02150FB
S1130AC080409040E1F700C0000086E090E007DB42
S1130AD02FEF81EE94E0215080409040E1F700C078
S1130AE0000085E090E0FBDA2FEF81EE94E02150E6
S1130AF080409040E1F700C0000089E090E0EFDA28
S1130B002FEF81EE94E0215080409040E1F700C047
S1130B1000008AE090E0E3DA2FEF81EE94E02150C8
S1130B2080409040E1F700C000008BE090E0D7DA0D
S1130B302FEF81EE94E0215080409040E1F700C017
S1130B4000008CE090E0CBDA2FEF81EE94E02150AE
S1130B5080409040E1F700C0000080E190E0BFDAFF
S1130B602FEF81EE94E0215080409040E1F700C0E7
S1130B7000008FE090E0B3DA2FEF81EE94E0215093
S1130B8080409040E1F700C000008EE090E0A7DADA
S1130B902FEF81EE94E0215080409040E1F700C0B7
S1130BA000008DE090E09BDA2FEF81EE94E021507D
S1130BB080409040E1F700C000008DE090E0B7DA9B
S1130BC02FEF81EE94E0215080409040E1F700C087
S1130BD000008EE090E0ABDA2FEF81EE94E021503C
S1130BE080409040E1F700C000008FE090E09FDA81
S1130BF02FEF81EE94E0215080409040E1F700C057
S1130C00000080E190E093DA2FEF81EE94E0215030
S1130C1080409040E1F700C000008CE090E087DA6B
S1130C202FEF81EE94E0215080409040E1F700C026
S1130C3000008BE090E07BDA2FEF81EE94E021500E
S1130C4080409040E1F700C000008AE090E06FDA55
S1130C502FEF81EE94E0215080409040E1F700C0F6
S1130C60000089E090E063DA2FEF81EE94E02150F8
S1130C7080409040E1F700C0000085E090E057DA42
S1130C802FEF81EE94E0215080409040E1F700C0C6
S1130C90000086E090E04BDA2FEF81EE94E02150E3
S1130CA080409040E1F700C0000087E090E03FDA28
S1130CB02FEF81EE94E0215080409040E1F700C096
S1130CC0000088E090E033DA2FEF81EE94E02150C9
S1130CD080409040E1F700C0000084E090E027DA13
S1130CE02FEF81EE94E0215080409040E1F700C066
S1130CF0000083E090E01BDA2FEF81EE94E02150B6
S1130D0080409040E1F700C0000082E090E00FDAFC
S1130D102FEF81EE94E0215080409040E1F700C035
S1130D20000081E090E003DA2FEF81EE94E021509F
S1130D3080409040E1F700C00000C4E0D0E051DA08
S1130D402FEF89E698E1215080409040E1F700C000
S1130D50000044DA2FEF89E698E12150804090406A
S1130D60E1F700C00000219751F7DF91CF9108957A
S1130D70CF93DF93CEE1D0E082E090E0D8D984E055
S1130D8090E0D5D985E090E0D2D987E090E0CFD942
S1130D908AE090E0CCD98CE090E0C9D98DE090E075
S1130DA0C6D98FE090E0C3D981E090E098D983E080
S1130DB090E095D986E090E092D988E090E08FD9D0
S1130DC089E090E08CD98BE090E089D98EE090E0C6
S1130DD086D980E190E083D92FEF80E792E021501B
S1130DE080409040E1F700C0000081E090E09FD98E
S1130DF083E090E09CD986E090E099D988E090E087
S1130E0096D989E090E093D98BE090E090D98EE078
S1130E1090E08DD980E190E08AD982E090E05FD9BA
S1130E2084E090E05CD985E090E059D987E090E0D7
S1130E3056D98AE090E053D98CE090E050D98DE007
S1130E4090E04DD98FE090E04AD92FEF80E792E00F
S1130E50215080409040E1F700C00000219709F044
S1130E608BCFC4E0D0E0BDD92FEF89E698E12150C3
S1130E7080409040E1F700C00000B0D92FEF89E630
S1130E8098E1215080409040E1F700C00000219794
S1130E9051F7DF91CF9108958FEF8ABB81BBCBDDF2
S1130EA0A4D9ECD940DAB2DA15DB4DDBC8DB2EDC91
S1130EB084DCCCDC1CDD8EDD5BDF80E090E008951B
S1130EC0EE0FFF1F0024001C0BBE0790F691E02DCF
S1090ED00994F894FFCF21
S9030A36BC
